{
  "_format": "hh-sol-artifact-1",
  "contractName": "IronFistLogger",
  "sourceName": "contracts/IronFistLogger.sol",
  "abi": [
    {
      "inputs": [],
      "stateMutability": "nonpayable",
      "type": "constructor"
    },
    {
      "anonymous": false,
      "inputs": [
        {
          "indexed": true,
          "internalType": "uint256",
          "name": "index",
          "type": "uint256"
        },
        {
          "indexed": true,
          "internalType": "bytes32",
          "name": "dataHash",
          "type": "bytes32"
        },
        {
          "indexed": false,
          "internalType": "string",
          "name": "eventType",
          "type": "string"
        },
        {
          "indexed": false,
          "internalType": "uint256",
          "name": "timestamp",
          "type": "uint256"
        },
        {
          "indexed": false,
          "internalType": "address",
          "name": "submitter",
          "type": "address"
        }
      ],
      "name": "EventLogged",
      "type": "event"
    },
    {
      "anonymous": false,
      "inputs": [
        {
          "indexed": true,
          "internalType": "address",
          "name": "oldOwner",
          "type": "address"
        },
        {
          "indexed": true,
          "internalType": "address",
          "name": "newOwner",
          "type": "address"
        }
      ],
      "name": "OwnershipTransferred",
      "type": "event"
    },
    {
      "inputs": [
        {
          "internalType": "uint256",
          "name": "index",
          "type": "uint256"
        }
      ],
      "name": "getLog",
      "outputs": [
        {
          "internalType": "bytes32",
          "name": "dataHash",
          "type": "bytes32"
        },
        {
          "internalType": "string",
          "name": "eventType",
          "type": "string"
        },
        {
          "internalType": "uint256",
          "name": "timestamp",
          "type": "uint256"
        },
        {
          "internalType": "address",
          "name": "submitter",
          "type": "address"
        }
      ],
      "stateMutability": "view",
      "type": "function"
    },
    {
      "inputs": [],
      "name": "getLogCount",
      "outputs": [
        {
          "internalType": "uint256",
          "name": "",
          "type": "uint256"
        }
      ],
      "stateMutability": "view",
      "type": "function"
    },
    {
      "inputs": [
        {
          "internalType": "uint256",
          "name": "n",
          "type": "uint256"
        }
      ],
      "name": "getRecentLogs",
      "outputs": [
        {
          "components": [
            {
              "internalType": "bytes32",
              "name": "dataHash",
              "type": "bytes32"
            },
            {
              "internalType": "string",
              "name": "eventType",
              "type": "string"
            },
            {
              "internalType": "uint256",
              "name": "timestamp",
              "type": "uint256"
            },
            {
              "internalType": "address",
              "name": "submitter",
              "type": "address"
            }
          ],
          "internalType": "struct IronFistLogger.LogEntry[]",
          "name": "",
          "type": "tuple[]"
        }
      ],
      "stateMutability": "view",
      "type": "function"
    },
    {
      "inputs": [
        {
          "internalType": "bytes32",
          "name": "",
          "type": "bytes32"
        }
      ],
      "name": "hashExists",
      "outputs": [
        {
          "internalType": "bool",
          "name": "",
          "type": "bool"
        }
      ],
      "stateMutability": "view",
      "type": "function"
    },
    {
      "inputs": [
        {
          "internalType": "bytes32",
          "name": "dataHash",
          "type": "bytes32"
        },
        {
          "internalType": "string",
          "name": "eventType",
          "type": "string"
        }
      ],
      "name": "logEvent",
      "outputs": [
        {
          "internalType": "uint256",
          "name": "index",
          "type": "uint256"
        }
      ],
      "stateMutability": "nonpayable",
      "type": "function"
    },
    {
      "inputs": [],
      "name": "owner",
      "outputs": [
        {
          "internalType": "address",
          "name": "",
          "type": "address"
        }
      ],
      "stateMutability": "view",
      "type": "function"
    },
    {
      "inputs": [
        {
          "internalType": "address",
          "name": "newOwner",
          "type": "address"
        }
      ],
      "name": "transferOwnership",
      "outputs": [],
      "stateMutability": "nonpayable",
      "type": "function"
    },
    {
      "inputs": [
        {
          "internalType": "bytes32",
          "name": "dataHash",
          "type": "bytes32"
        }
      ],
      "name": "verifyHash",
      "outputs": [
        {
          "internalType": "bool",
          "name": "exists",
          "type": "bool"
        }
      ],
      "stateMutability": "view",
      "type": "function"
    }
  ],
  "bytecode": "0x608060405234801561001057600080fd5b50600080546001600160a01b03191633179055610c0f806100326000396000f3fe608060405234801561001057600080fd5b50600436106100885760003560e01c8063b535b5c31161005b578063b535b5c314610109578063e52e64f91461013c578063ef020f4a1461015c578063f2fde38b1461017f57600080fd5b80633206b2c61461008d578063618033db146100b957806382433473146100cb5780638da5cb5b146100de575b600080fd5b6100a061009b3660046107a6565b610194565b6040516100b09493929190610805565b60405180910390f35b6001545b6040519081526020016100b0565b6100bd6100d936600461083f565b6102db565b6000546100f1906001600160a01b031681565b6040516001600160a01b0390911681526020016100b0565b61012c6101173660046107a6565b60026020526000908152604090205460ff1681565b60405190151581526020016100b0565b61014f61014a3660046107a6565b6104f6565b6040516100b091906108bb565b61012c61016a3660046107a6565b60009081526002602052604090205460ff1690565b61019261018d36600461094f565b6106bf565b005b6000606060008060018054905085106101f45760405162461bcd60e51b815260206004820152601d60248201527f49726f6e466973743a20696e646578206f7574206f6620626f756e647300000060448201526064015b60405180910390fd5b6000600186815481106102095761020961097f565b9060005260206000209060040201905080600001548160010182600201548360030160009054906101000a90046001600160a01b031682805461024b90610995565b80601f016020809104026020016040519081016040528092919081815260200182805461027790610995565b80156102c45780601f10610299576101008083540402835291602001916102c4565b820191906000526020600020905b8154815290600101906020018083116102a757829003601f168201915b505050505092509450945094509450509193509193565b600080546001600160a01b031633146103065760405162461bcd60e51b81526004016101eb906109cf565b83806103545760405162461bcd60e51b815260206004820152601d60248201527f49726f6e466973743a20686173682063616e6e6f74206265207a65726f00000060448201526064016101eb565b60008581526002602052604090205460ff16156103c35760405162461bcd60e51b815260206004820152602760248201527f49726f6e466973743a206475706c6963617465206861736820616c7265616479604482015266081b1bd9d9d95960ca1b60648201526084016101eb565b60018054905091506001604051806080016040528087815260200186868080601f0160208091040260200160405190810160405280939291908181526020018383808284376000920182905250938552505042602080850191909152336040909401939093525083546001818101865594825290829020835160049092020190815590820151919290919082019061045b9082610a75565b50604082810151600283810191909155606090930151600390920180546001600160a01b0319166001600160a01b0390931692909217909155600087815260209290925290819020805460ff1916600117905551859083907f16f6956b90883b1ce0cdaee1a3ea13f061a1d90c4789c09de0b5e94f0239099a906104e6908890889042903390610b35565b60405180910390a3509392505050565b600154606090600081841161050b578361050d565b815b905060008167ffffffffffffffff81111561052a5761052a610a10565b60405190808252806020026020018201604052801561057c57816020015b6040805160808101825260008082526060602080840182905293830182905282015282526000199092019101816105485790505b50905060005b828110156106b6576001816105978587610b94565b6105a19190610bad565b815481106105b1576105b161097f565b9060005260206000209060040201604051806080016040529081600082015481526020016001820180546105e490610995565b80601f016020809104026020016040519081016040528092919081815260200182805461061090610995565b801561065d5780601f106106325761010080835404028352916020019161065d565b820191906000526020600020905b81548152906001019060200180831161064057829003601f168201915b5050509183525050600282015460208201526003909101546001600160a01b031660409091015282518390839081106106985761069861097f565b602002602001018190525080806106ae90610bc0565b915050610582565b50949350505050565b6000546001600160a01b031633146106e95760405162461bcd60e51b81526004016101eb906109cf565b6001600160a01b03811661074b5760405162461bcd60e51b815260206004820152602360248201527f49726f6e466973743a206e6577206f776e6572206973207a65726f206164647260448201526265737360e81b60648201526084016101eb565b600080546040516001600160a01b03808516939216917f8be0079c531659141344cd1fd0a4f28419497f9722a3daafe3b4186f6b6457e091a3600080546001600160a01b0319166001600160a01b0392909216919091179055565b6000602082840312156107b857600080fd5b5035919050565b6000815180845260005b818110156107e5576020818501810151868301820152016107c9565b506000602082860101526020601f19601f83011685010191505092915050565b84815260806020820152600061081e60808301866107bf565b6040830194909452506001600160a01b039190911660609091015292915050565b60008060006040848603121561085457600080fd5b83359250602084013567ffffffffffffffff8082111561087357600080fd5b818601915086601f83011261088757600080fd5b81358181111561089657600080fd5b8760208285010111156108a857600080fd5b6020830194508093505050509250925092565b60006020808301818452808551808352604092508286019150828160051b87010184880160005b8381101561094157603f19898403018552815160808151855288820151818a870152610910828701826107bf565b838a0151878b01526060938401516001600160a01b03169390960192909252505093860193908601906001016108e2565b509098975050505050505050565b60006020828403121561096157600080fd5b81356001600160a01b038116811461097857600080fd5b9392505050565b634e487b7160e01b600052603260045260246000fd5b600181811c908216806109a957607f821691505b6020821081036109c957634e487b7160e01b600052602260045260246000fd5b50919050565b60208082526021908201527f49726f6e466973743a2063616c6c6572206973206e6f7420746865206f776e656040820152603960f91b606082015260800190565b634e487b7160e01b600052604160045260246000fd5b601f821115610a7057600081815260208120601f850160051c81016020861015610a4d5750805b601f850160051c820191505b81811015610a6c57828155600101610a59565b5050505b505050565b815167ffffffffffffffff811115610a8f57610a8f610a10565b610aa381610a9d8454610995565b84610a26565b602080601f831160018114610ad85760008415610ac05750858301515b600019600386901b1c1916600185901b178555610a6c565b600085815260208120601f198616915b82811015610b0757888601518255948401946001909101908401610ae8565b5085821015610b255787850151600019600388901b60f8161c191681555b5050505050600190811b01905550565b60608152836060820152838560808301376000608085830181019190915260208201939093526001600160a01b03919091166040820152601f909201601f191690910101919050565b634e487b7160e01b600052601160045260246000fd5b81810381811115610ba757610ba7610b7e565b92915050565b80820180821115610ba757610ba7610b7e565b600060018201610bd257610bd2610b7e565b506001019056fea2646970667358221220e2a687a0635edb8a0cbb0ff128d43ad0d9e7d2912ae1c7bdc2905c2fea225e8664736f6c63430008140033",
  "linkReferences": {},
  "deployedLinkReferences": {}
}